{
    "contractName": "ERC721MintableComplete",
    "abi": [
        {
            "constant": true,
            "inputs": [
                {
                    "internalType": "bytes4",
                    "name": "interfaceId",
                    "type": "bytes4"
                }
            ],
            "name": "supportsInterface",
            "outputs": [
                {
                    "internalType": "bool",
                    "name": "",
                    "type": "bool"
                }
            ],
            "payable": false,
            "stateMutability": "view",
            "type": "function"
        },
        {
            "constant": true,
            "inputs": [],
            "name": "name",
            "outputs": [
                {
                    "internalType": "string",
                    "name": "",
                    "type": "string"
                }
            ],
            "payable": false,
            "stateMutability": "view",
            "type": "function"
        },
        {
            "constant": true,
            "inputs": [
                {
                    "internalType": "uint256",
                    "name": "tokenId",
                    "type": "uint256"
                }
            ],
            "name": "getApproved",
            "outputs": [
                {
                    "internalType": "address",
                    "name": "",
                    "type": "address"
                }
            ],
            "payable": false,
            "stateMutability": "view",
            "type": "function"
        },
        {
            "constant": false,
            "inputs": [
                {
                    "internalType": "address",
                    "name": "to",
                    "type": "address"
                },
                {
                    "internalType": "uint256",
                    "name": "tokenId",
                    "type": "uint256"
                }
            ],
            "name": "approve",
            "outputs": [],
            "payable": false,
            "stateMutability": "nonpayable",
            "type": "function"
        },
        {
            "constant": true,
            "inputs": [],
            "name": "totalSupply",
            "outputs": [
                {
                    "internalType": "uint256",
                    "name": "",
                    "type": "uint256"
                }
            ],
            "payable": false,
            "stateMutability": "view",
            "type": "function"
        },
        {
            "constant": false,
            "inputs": [
                {
                    "internalType": "address",
                    "name": "from",
                    "type": "address"
                },
                {
                    "internalType": "address",
                    "name": "to",
                    "type": "address"
                },
                {
                    "internalType": "uint256",
                    "name": "tokenId",
                    "type": "uint256"
                }
            ],
            "name": "transferFrom",
            "outputs": [],
            "payable": false,
            "stateMutability": "nonpayable",
            "type": "function"
        },
        {
            "constant": false,
            "inputs": [
                {
                    "internalType": "bytes32",
                    "name": "_myid",
                    "type": "bytes32"
                },
                {
                    "internalType": "string",
                    "name": "_result",
                    "type": "string"
                }
            ],
            "name": "__callback",
            "outputs": [],
            "payable": false,
            "stateMutability": "nonpayable",
            "type": "function"
        },
        {
            "constant": true,
            "inputs": [
                {
                    "internalType": "address",
                    "name": "owner",
                    "type": "address"
                },
                {
                    "internalType": "uint256",
                    "name": "index",
                    "type": "uint256"
                }
            ],
            "name": "tokenOfOwnerByIndex",
            "outputs": [
                {
                    "internalType": "uint256",
                    "name": "",
                    "type": "uint256"
                }
            ],
            "payable": false,
            "stateMutability": "view",
            "type": "function"
        },
        {
            "constant": false,
            "inputs": [
                {
                    "internalType": "bytes32",
                    "name": "_myid",
                    "type": "bytes32"
                },
                {
                    "internalType": "string",
                    "name": "_result",
                    "type": "string"
                },
                {
                    "internalType": "bytes",
                    "name": "_proof",
                    "type": "bytes"
                }
            ],
            "name": "__callback",
            "outputs": [],
            "payable": false,
            "stateMutability": "nonpayable",
            "type": "function"
        },
        {
            "constant": false,
            "inputs": [],
            "name": "unpause",
            "outputs": [],
            "payable": false,
            "stateMutability": "nonpayable",
            "type": "function"
        },
        {
            "constant": false,
            "inputs": [
                {
                    "internalType": "address",
                    "name": "to",
                    "type": "address"
                },
                {
                    "internalType": "uint256",
                    "name": "tokenId",
                    "type": "uint256"
                }
            ],
            "name": "mint",
            "outputs": [
                {
                    "internalType": "bool",
                    "name": "",
                    "type": "bool"
                }
            ],
            "payable": false,
            "stateMutability": "nonpayable",
            "type": "function"
        },
        {
            "constant": false,
            "inputs": [
                {
                    "internalType": "address",
                    "name": "from",
                    "type": "address"
                },
                {
                    "internalType": "address",
                    "name": "to",
                    "type": "address"
                },
                {
                    "internalType": "uint256",
                    "name": "tokenId",
                    "type": "uint256"
                }
            ],
            "name": "safeTransferFrom",
            "outputs": [],
            "payable": false,
            "stateMutability": "nonpayable",
            "type": "function"
        },
        {
            "constant": true,
            "inputs": [
                {
                    "internalType": "uint256",
                    "name": "index",
                    "type": "uint256"
                }
            ],
            "name": "tokenByIndex",
            "outputs": [
                {
                    "internalType": "uint256",
                    "name": "",
                    "type": "uint256"
                }
            ],
            "payable": false,
            "stateMutability": "view",
            "type": "function"
        },
        {
            "constant": true,
            "inputs": [
                {
                    "internalType": "uint256",
                    "name": "tokenId",
                    "type": "uint256"
                }
            ],
            "name": "ownerOf",
            "outputs": [
                {
                    "internalType": "address",
                    "name": "",
                    "type": "address"
                }
            ],
            "payable": false,
            "stateMutability": "view",
            "type": "function"
        },
        {
            "constant": true,
            "inputs": [
                {
                    "internalType": "address",
                    "name": "owner",
                    "type": "address"
                }
            ],
            "name": "balanceOf",
            "outputs": [
                {
                    "internalType": "uint256",
                    "name": "",
                    "type": "uint256"
                }
            ],
            "payable": false,
            "stateMutability": "view",
            "type": "function"
        },
        {
            "constant": false,
            "inputs": [],
            "name": "pause",
            "outputs": [],
            "payable": false,
            "stateMutability": "nonpayable",
            "type": "function"
        },
        {
            "constant": true,
            "inputs": [],
            "name": "owner",
            "outputs": [
                {
                    "internalType": "address",
                    "name": "",
                    "type": "address"
                }
            ],
            "payable": false,
            "stateMutability": "view",
            "type": "function"
        },
        {
            "constant": true,
            "inputs": [],
            "name": "isOwner",
            "outputs": [
                {
                    "internalType": "bool",
                    "name": "",
                    "type": "bool"
                }
            ],
            "payable": false,
            "stateMutability": "view",
            "type": "function"
        },
        {
            "constant": true,
            "inputs": [],
            "name": "symbol",
            "outputs": [
                {
                    "internalType": "string",
                    "name": "",
                    "type": "string"
                }
            ],
            "payable": false,
            "stateMutability": "view",
            "type": "function"
        },
        {
            "constant": false,
            "inputs": [
                {
                    "internalType": "address",
                    "name": "to",
                    "type": "address"
                },
                {
                    "internalType": "bool",
                    "name": "approved",
                    "type": "bool"
                }
            ],
            "name": "setApprovalForAll",
            "outputs": [],
            "payable": false,
            "stateMutability": "nonpayable",
            "type": "function"
        },
        {
            "constant": false,
            "inputs": [
                {
                    "internalType": "address",
                    "name": "from",
                    "type": "address"
                },
                {
                    "internalType": "address",
                    "name": "to",
                    "type": "address"
                },
                {
                    "internalType": "uint256",
                    "name": "tokenId",
                    "type": "uint256"
                },
                {
                    "internalType": "bytes",
                    "name": "_data",
                    "type": "bytes"
                }
            ],
            "name": "safeTransferFrom",
            "outputs": [],
            "payable": false,
            "stateMutability": "nonpayable",
            "type": "function"
        },
        {
            "constant": true,
            "inputs": [
                {
                    "internalType": "uint256",
                    "name": "tokenId",
                    "type": "uint256"
                }
            ],
            "name": "tokenURI",
            "outputs": [
                {
                    "internalType": "string",
                    "name": "",
                    "type": "string"
                }
            ],
            "payable": false,
            "stateMutability": "view",
            "type": "function"
        },
        {
            "constant": true,
            "inputs": [],
            "name": "baseTokenURI",
            "outputs": [
                {
                    "internalType": "string",
                    "name": "",
                    "type": "string"
                }
            ],
            "payable": false,
            "stateMutability": "view",
            "type": "function"
        },
        {
            "constant": true,
            "inputs": [
                {
                    "internalType": "address",
                    "name": "owner",
                    "type": "address"
                },
                {
                    "internalType": "address",
                    "name": "operator",
                    "type": "address"
                }
            ],
            "name": "isApprovedForAll",
            "outputs": [
                {
                    "internalType": "bool",
                    "name": "",
                    "type": "bool"
                }
            ],
            "payable": false,
            "stateMutability": "view",
            "type": "function"
        },
        {
            "constant": false,
            "inputs": [
                {
                    "internalType": "address",
                    "name": "newOwner",
                    "type": "address"
                }
            ],
            "name": "transferOwnership",
            "outputs": [],
            "payable": false,
            "stateMutability": "nonpayable",
            "type": "function"
        },
        {
            "inputs": [
                {
                    "internalType": "string",
                    "name": "name",
                    "type": "string"
                },
                {
                    "internalType": "string",
                    "name": "symbol",
                    "type": "string"
                }
            ],
            "payable": false,
            "stateMutability": "nonpayable",
            "type": "constructor"
        },
        {
            "anonymous": false,
            "inputs": [
                {
                    "indexed": true,
                    "internalType": "address",
                    "name": "from",
                    "type": "address"
                },
                {
                    "indexed": true,
                    "internalType": "address",
                    "name": "to",
                    "type": "address"
                },
                {
                    "indexed": true,
                    "internalType": "uint256",
                    "name": "tokenId",
                    "type": "uint256"
                }
            ],
            "name": "Transfer",
            "type": "event"
        },
        {
            "anonymous": false,
            "inputs": [
                {
                    "indexed": true,
                    "internalType": "address",
                    "name": "owner",
                    "type": "address"
                },
                {
                    "indexed": true,
                    "internalType": "address",
                    "name": "approved",
                    "type": "address"
                },
                {
                    "indexed": true,
                    "internalType": "uint256",
                    "name": "tokenId",
                    "type": "uint256"
                }
            ],
            "name": "Approval",
            "type": "event"
        },
        {
            "anonymous": false,
            "inputs": [
                {
                    "indexed": true,
                    "internalType": "address",
                    "name": "owner",
                    "type": "address"
                },
                {
                    "indexed": true,
                    "internalType": "address",
                    "name": "operator",
                    "type": "address"
                },
                {
                    "indexed": false,
                    "internalType": "bool",
                    "name": "approved",
                    "type": "bool"
                }
            ],
            "name": "ApprovalForAll",
            "type": "event"
        },
        {
            "anonymous": false,
            "inputs": [
                {
                    "indexed": true,
                    "internalType": "address",
                    "name": "account",
                    "type": "address"
                }
            ],
            "name": "Paused",
            "type": "event"
        },
        {
            "anonymous": false,
            "inputs": [
                {
                    "indexed": true,
                    "internalType": "address",
                    "name": "account",
                    "type": "address"
                }
            ],
            "name": "Unpaused",
            "type": "event"
        },
        {
            "anonymous": false,
            "inputs": [
                {
                    "indexed": true,
                    "internalType": "address",
                    "name": "previousOwner",
                    "type": "address"
                },
                {
                    "indexed": true,
                    "internalType": "address",
                    "name": "newOwner",
                    "type": "address"
                }
            ],
            "name": "OwnershipTransferred",
            "type": "event"
        }
    ],
    "bytecode": "60806040523480156200001157600080fd5b506040516200208538038062002085833981810160405260408110156200003757600080fd5b81019080805160405193929190846401000000008211156200005857600080fd5b9083019060208201858111156200006e57600080fd5b82516401000000008111828201881017156200008957600080fd5b82525081516020918201929091019080838360005b83811015620000b85781810151838201526020016200009e565b50505050905090810190601f168015620000e65780820380516001836020036101000a031916815260200191505b50604052602001805160405193929190846401000000008211156200010a57600080fd5b9083019060208201858111156200012057600080fd5b82516401000000008111828201881017156200013b57600080fd5b82525081516020918201929091019080838360005b838110156200016a57818101518382015260200162000150565b50505050905090810190601f168015620001985780820380516001836020036101000a031916815260200191505b5060608101604052603f808252869450859350909150620020466020830139600080546001600160a01b03191633178082556040516001600160a01b039190911691907f8be0079c531659141344cd1fd0a4f28419497f9722a3daafe3b4186f6b6457e0908290a36000805460ff60a01b19169055620002417f01ffc9a7000000000000000000000000000000000000000000000000000000006001600160e01b036200032a16565b620002757f80ac58cd000000000000000000000000000000000000000000000000000000006001600160e01b036200032a16565b620002a97f780e9d63000000000000000000000000000000000000000000000000000000006001600160e01b036200032a16565b8251620002be90600f9060208601906200039a565b508151620002d49060109060208501906200039a565b508051620002ea9060119060208401906200039a565b506200031f7f5b5e139f000000000000000000000000000000000000000000000000000000006001600160e01b036200032a16565b50505050506200043f565b7fffffffff0000000000000000000000000000000000000000000000000000000080821614156200035a57600080fd5b7fffffffff00000000000000000000000000000000000000000000000000000000166000908152600160208190526040909120805460ff19169091179055565b828054600181600116156101000203166002900490600052602060002090601f016020900481019282601f10620003dd57805160ff19168380011785556200040d565b828001600101855582156200040d579182015b828111156200040d578251825591602001919060010190620003f0565b506200041b9291506200041f565b5090565b6200043c91905b808211156200041b576000815560010162000426565b90565b611bf7806200044f6000396000f3fe608060405234801561001057600080fd5b50600436106101735760003560e01c80634f6ccce7116100de57806395d89b4111610097578063c87b56dd11610071578063c87b56dd146106ca578063d547cfb7146106e7578063e985e9c5146106ef578063f2fde38b1461071d57610173565b806395d89b41146105d0578063a22cb465146105d8578063b88d4fde1461060657610173565b80634f6ccce7146105585780636352211e1461057557806370a08231146105925780638456cb59146105b85780638da5cb5b146105c05780638f32d59b146105c857610173565b806327dc297e1161013057806327dc297e146102e75780632f745c591461039257806338bbfa50146103be5780633f4ba83a146104ee57806340c10f19146104f657806342842e0e1461052257610173565b806301ffc9a71461017857806306fdde03146101b3578063081812fc14610230578063095ea7b31461026957806318160ddd1461029757806323b872dd146102b1575b600080fd5b61019f6004803603602081101561018e57600080fd5b50356001600160e01b031916610743565b604080519115158252519081900360200190f35b6101bb610766565b6040805160208082528351818301528351919283929083019185019080838360005b838110156101f55781810151838201526020016101dd565b50505050905090810190601f1680156102225780820380516001836020036101000a031916815260200191505b509250505060405180910390f35b61024d6004803603602081101561024657600080fd5b50356107fd565b604080516001600160a01b039092168252519081900360200190f35b6102956004803603604081101561027f57600080fd5b506001600160a01b038135169060200135610818565b005b61029f61093f565b60408051918252519081900360200190f35b610295600480360360608110156102c757600080fd5b506001600160a01b03813581169160208101359091169060400135610945565b610295600480360360408110156102fd57600080fd5b81359190810190604081016020820135600160201b81111561031e57600080fd5b82018360208201111561033057600080fd5b803590602001918460018302840111600160201b8311171561035157600080fd5b91908080601f016020809104026020016040519081016040528093929190818152602001838380828437600092019190915250929550610968945050505050565b61029f600480360360408110156103a857600080fd5b506001600160a01b038135169060200135610988565b610295600480360360608110156103d457600080fd5b81359190810190604081016020820135600160201b8111156103f557600080fd5b82018360208201111561040757600080fd5b803590602001918460018302840111600160201b8311171561042857600080fd5b91908080601f0160208091040260200160405190810160405280939291908181526020018383808284376000920191909152509295949360208101935035915050600160201b81111561047a57600080fd5b82018360208201111561048c57600080fd5b803590602001918460018302840111600160201b831117156104ad57600080fd5b91908080601f016020809104026020016040519081016040528093929190818152602001838380828437600092019190915250929550610963945050505050565b6102956109d6565b61019f6004803603604081101561050c57600080fd5b506001600160a01b038135169060200135610abd565b6102956004803603606081101561053857600080fd5b506001600160a01b03813581169160208101359091169060400135610b7d565b61029f6004803603602081101561056e57600080fd5b5035610b98565b61024d6004803603602081101561058b57600080fd5b5035610bcc565b61029f600480360360208110156105a857600080fd5b50356001600160a01b0316610be7565b610295610c08565b61024d610cf1565b61019f610d00565b6101bb610d11565b610295600480360360408110156105ee57600080fd5b506001600160a01b0381351690602001351515610d72565b6102956004803603608081101561061c57600080fd5b6001600160a01b03823581169260208101359091169160408201359190810190608081016060820135600160201b81111561065657600080fd5b82018360208201111561066857600080fd5b803590602001918460018302840111600160201b8311171561068957600080fd5b91908080601f016020809104026020016040519081016040528093929190818152602001838380828437600092019190915250929550610df6945050505050565b6101bb600480360360208110156106e057600080fd5b5035610e1c565b6101bb610ecf565b61019f6004803603604081101561070557600080fd5b506001600160a01b0381358116916020013516610f30565b6102956004803603602081101561073357600080fd5b50356001600160a01b0316610f5e565b6001600160e01b0319811660009081526001602052604090205460ff165b919050565b600f8054604080516020601f60026000196101006001881615020190951694909404938401819004810282018101909252828152606093909290918301828280156107f25780601f106107c7576101008083540402835291602001916107f2565b820191906000526020600020905b8154815290600101906020018083116107d557829003601f168201915b505050505090505b90565b6000908152600360205260409020546001600160a01b031690565b600061082382610bcc565b9050806001600160a01b0316836001600160a01b0316141561088c576040805162461bcd60e51b815260206004820152601a60248201527f43616e6e6f7420617070726f766520746f20796f757273656c66000000000000604482015290519081900360640190fd5b336001600160a01b03821614806108a857506108a88133610f30565b6108e35760405162461bcd60e51b815260040180806020018281038252602b815260200180611b57602b913960400191505060405180910390fd5b60008281526003602052604080822080546001600160a01b0319166001600160a01b0387811691821790925591518593918516917f8c5be1e5ebec7d5bd14f71427d1e84f3dd0314c0f7b2291e5b200ac8c7c3b92591a4505050565b60085490565b61094f3382611019565b61095857600080fd5b610963838383611078565b505050565b6040805160008152602081019091526109849083908390610963565b5050565b600061099383610be7565b821061099e57600080fd5b6001600160a01b03831660009081526006602052604090208054839081106109c257fe5b906000526020600020015490505b92915050565b6000546001600160a01b03163314610a23576040805162461bcd60e51b81526020600482018190526024820152600080516020611b82833981519152604482015290519081900360640190fd5b600054600160a01b900460ff161515600114610a86576040805162461bcd60e51b815260206004820181905260248201527f436f6e7472616374206973206e6f742063757272656e746c7920706175736564604482015290519081900360640190fd5b6000805460ff60a01b1916815560405133917f5db9ee0a495bf2e6ff9c91a7834c1ba4fdd244a5e8aa4e537bd38aeae4b073aa91a2565b600080546001600160a01b03163314610b0b576040805162461bcd60e51b81526020600482018190526024820152600080516020611b82833981519152604482015290519081900360640190fd5b600054600160a01b900460ff1615610b6a576040805162461bcd60e51b815260206004820152601c60248201527f436f6e74726163742069732063757272656e746c792070617573656400000000604482015290519081900360640190fd5b610b748383611097565b6109d0826110b4565b61096383838360405180602001604052806000815250610df6565b6000610ba261093f565b8210610bad57600080fd5b60088281548110610bba57fe5b90600052602060002001549050919050565b6000908152600260205260409020546001600160a01b031690565b6001600160a01b03811660009081526004602052604081206109d0906111c8565b6000546001600160a01b03163314610c55576040805162461bcd60e51b81526020600482018190526024820152600080516020611b82833981519152604482015290519081900360640190fd5b600054600160a01b900460ff1615610cb4576040805162461bcd60e51b815260206004820152601c60248201527f436f6e74726163742069732063757272656e746c792070617573656400000000604482015290519081900360640190fd5b6000805460ff60a01b1916600160a01b17815560405133917f62e78cea01bee320cd4e420270b5ea74000d11b0c9f74754ebdbfc544b05a25891a2565b6000546001600160a01b031690565b6000546001600160a01b0316331490565b60108054604080516020601f60026000196101006001881615020190951694909404938401819004810282018101909252828152606093909290918301828280156107f25780601f106107c7576101008083540402835291602001916107f2565b6001600160a01b038216331415610d8857600080fd5b3360008181526005602090815260408083206001600160a01b03871680855290835292819020805460ff1916861515908117909155815190815290519293927f17307eab39ab6107e8899845ad3d59bd9653f200f220920489ca2b5937696c31929181900390910190a35050565b610e01848484610945565b610e0d848484846111cc565b610e1657600080fd5b50505050565b6060610e27826112ff565b610e3057600080fd5b60008281526012602090815260409182902080548351601f600260001961010060018616150201909316929092049182018490048402810184019094528084529091830182828015610ec35780601f10610e9857610100808354040283529160200191610ec3565b820191906000526020600020905b815481529060010190602001808311610ea657829003601f168201915b50505050509050919050565b60118054604080516020601f60026000196101006001881615020190951694909404938401819004810282018101909252828152606093909290918301828280156107f25780601f106107c7576101008083540402835291602001916107f2565b6001600160a01b03918216600090815260056020908152604080832093909416825291909152205460ff1690565b6000546001600160a01b03163314610fab576040805162461bcd60e51b81526020600482018190526024820152600080516020611b82833981519152604482015290519081900360640190fd5b6001600160a01b038116610fbe57600080fd5b600080546040516001600160a01b03808516939216917f8be0079c531659141344cd1fd0a4f28419497f9722a3daafe3b4186f6b6457e091a3600080546001600160a01b0319166001600160a01b0392909216919091179055565b60008061102583610bcc565b9050806001600160a01b0316846001600160a01b031614806110605750836001600160a01b0316611055846107fd565b6001600160a01b0316145b8061107057506110708185610f30565b949350505050565b61108383838361131c565b61108d838261146b565b6109638282611560565b6110a1828261159e565b6110ab8282611560565b610984816116ca565b6110bd816112ff565b611105576040805162461bcd60e51b8152602060048201526014602482015273151bdad95b88191bd95cc81b9bdd08195e1a5cdd60621b604482015290519081900360640190fd5b60118054604080516020601f600260001961010060018816150201909516949094049384018190048102820181019092528281526111a593909290918301828280156111925780601f1061116757610100808354040283529160200191611192565b820191906000526020600020905b81548152906001019060200180831161117557829003601f168201915b50505050506111a08361170e565b6117cf565b600082815260126020908152604090912082516109849391929190910190611a9e565b5490565b60006111e0846001600160a01b0316611812565b6111ec57506001611070565b604051630a85bd0160e11b815233600482018181526001600160a01b03888116602485015260448401879052608060648501908152865160848601528651600095928a169463150b7a029490938c938b938b939260a4019060208501908083838e5b8381101561126657818101518382015260200161124e565b50505050905090810190601f1680156112935780820380516001836020036101000a031916815260200191505b5095505050505050602060405180830381600087803b1580156112b557600080fd5b505af11580156112c9573d6000803e3d6000fd5b505050506040513d60208110156112df57600080fd5b50516001600160e01b031916630a85bd0160e11b14915050949350505050565b6000908152600260205260409020546001600160a01b0316151590565b61132581610bcc565b6001600160a01b0316836001600160a01b0316146113745760405162461bcd60e51b8152600401808060200182810382526021815260200180611ba26021913960400191505060405180910390fd5b6001600160a01b0382166113c4576040805162461bcd60e51b8152602060048201526012602482015271496e76616c696420746f206164647265737360701b604482015290519081900360640190fd5b6113cd81611818565b6001600160a01b03831660009081526004602052604090206113ee90611855565b6001600160a01b038216600090815260046020526040902061140f9061186c565b60008181526002602052604080822080546001600160a01b0319166001600160a01b0386811691821790925591518493918716917fddf252ad1be2c89b69c2b068fc378daa952ba7f163c4a11628f55a4df523b3ef91a4505050565b6001600160a01b03821660009081526006602052604081205461149590600163ffffffff61187516565b600083815260076020526040902054909150808214611530576001600160a01b03841660009081526006602052604081208054849081106114d257fe5b906000526020600020015490508060066000876001600160a01b03166001600160a01b03168152602001908152602001600020838154811061151057fe5b600091825260208083209091019290925591825260079052604090208190555b6001600160a01b0384166000908152600660205260409020805490611559906000198301611b1c565b5050505050565b6001600160a01b0390911660009081526006602081815260408084208054868652600784529185208290559282526001810183559183529091200155565b6000818152600260205260409020546001600160a01b0316156115ff576040805162461bcd60e51b8152602060048201526014602482015273546f6b656e2065786973747320616c726561647960601b604482015290519081900360640190fd5b6001600160a01b03821661164f576040805162461bcd60e51b8152602060048201526012602482015271496e76616c696420746f206164647265737360701b604482015290519081900360640190fd5b600081815260026020908152604080832080546001600160a01b0319166001600160a01b03871690811790915583526004909152902061168e9061186c565b60405181906001600160a01b038416906000907fddf252ad1be2c89b69c2b068fc378daa952ba7f163c4a11628f55a4df523b3ef908290a45050565b600880546000838152600960205260408120829055600182018355919091527ff3f7a9fe364faab93b216da50a3214154f22a0a2b415b23a84c8169e8b636ee30155565b60608161173357506040805180820190915260018152600360fc1b6020820152610761565b8160005b811561174b57600101600a82049150611737565b6060816040519080825280601f01601f191660200182016040528015611778576020820181803883390190505b50905060001982015b85156117c657600a860660300160f81b828280600190039350815181106117a457fe5b60200101906001600160f81b031916908160001a905350600a86049550611781565b50949350505050565b606061180b838360405180602001604052806000815250604051806020016040528060008152506040518060200160405280600081525061188a565b9392505050565b3b151590565b6000818152600360205260409020546001600160a01b03161561185257600081815260036020526040902080546001600160a01b03191690555b50565b805461186890600163ffffffff61187516565b9055565b80546001019055565b60008282111561188457600080fd5b50900390565b6060808690506060869050606086905060608690506060869050606081518351855187518951010101016040519080825280601f01601f1916602001820160405280156118de576020820181803883390190505b509050806000805b8851811015611937578881815181106118fb57fe5b602001015160f81c60f81b83838060010194508151811061191857fe5b60200101906001600160f81b031916908160001a9053506001016118e6565b5060005b875181101561198c5787818151811061195057fe5b602001015160f81c60f81b83838060010194508151811061196d57fe5b60200101906001600160f81b031916908160001a90535060010161193b565b5060005b86518110156119e1578681815181106119a557fe5b602001015160f81c60f81b8383806001019450815181106119c257fe5b60200101906001600160f81b031916908160001a905350600101611990565b5060005b8551811015611a36578581815181106119fa57fe5b602001015160f81c60f81b838380600101945081518110611a1757fe5b60200101906001600160f81b031916908160001a9053506001016119e5565b5060005b8451811015611a8b57848181518110611a4f57fe5b602001015160f81c60f81b838380600101945081518110611a6c57fe5b60200101906001600160f81b031916908160001a905350600101611a3a565b50909d9c50505050505050505050505050565b828054600181600116156101000203166002900490600052602060002090601f016020900481019282601f10611adf57805160ff1916838001178555611b0c565b82800160010185558215611b0c579182015b82811115611b0c578251825591602001919060010190611af1565b50611b18929150611b3c565b5090565b815481835581811115610963576000838152602090206109639181019083015b6107fa91905b80821115611b185760008155600101611b4256fe43616c6c6572206973206e6f7420617574686f72697a656420616761696e7374207468697320746f6b656e43616c6c6572206973206e6f742074686520636f6e7472616374206f776e65724f6e6c7920746f6b656e206f776e65722063616e20706572666f726d2074686973a265627a7a72315820eef7e6bfafc2dc87feaa4bf55bd411f254d53e2eefcac9f194ee000dde38413c64736f6c634300050b003268747470733a2f2f73332d75732d776573742d322e616d617a6f6e6177732e636f6d2f756461636974792d626c6f636b636861696e2f63617073746f6e652f",
    "sourcePath": "/home/capstone/workspace/Capstone-RealEstate/eth-contracts/contracts/ERC721MintableComplete.sol",
    "compiler": {
        "name": "solc",
        "version": "0.5.11+commit.c082d0b4"
    },
    "functionHashes": {
        "__callback(bytes32,string)": "27dc297e",
        "__callback(bytes32,string,bytes)": "38bbfa50",
        "approve(address,uint256)": "095ea7b3",
        "balanceOf(address)": "70a08231",
        "baseTokenURI()": "d547cfb7",
        "getApproved(uint256)": "081812fc",
        "isApprovedForAll(address,address)": "e985e9c5",
        "isOwner()": "8f32d59b",
        "mint(address,uint256)": "40c10f19",
        "name()": "06fdde03",
        "owner()": "8da5cb5b",
        "ownerOf(uint256)": "6352211e",
        "pause()": "8456cb59",
        "safeTransferFrom(address,address,uint256)": "42842e0e",
        "safeTransferFrom(address,address,uint256,bytes)": "b88d4fde",
        "setApprovalForAll(address,bool)": "a22cb465",
        "supportsInterface(bytes4)": "01ffc9a7",
        "symbol()": "95d89b41",
        "tokenByIndex(uint256)": "4f6ccce7",
        "tokenOfOwnerByIndex(address,uint256)": "2f745c59",
        "tokenURI(uint256)": "c87b56dd",
        "totalSupply()": "18160ddd",
        "transferFrom(address,address,uint256)": "23b872dd",
        "transferOwnership(address)": "f2fde38b",
        "unpause()": "3f4ba83a"
    },
    "gasEstimates": {
        "creation": {
            "codeDepositCost": "1431800",
            "executionCost": "infinite",
            "totalCost": "infinite"
        },
        "external": {
            "__callback(bytes32,string)": "infinite",
            "__callback(bytes32,string,bytes)": "infinite",
            "approve(address,uint256)": "infinite",
            "balanceOf(address)": "649",
            "baseTokenURI()": "infinite",
            "getApproved(uint256)": "613",
            "isApprovedForAll(address,address)": "750",
            "isOwner()": "560",
            "mint(address,uint256)": "infinite",
            "name()": "infinite",
            "owner()": "548",
            "ownerOf(uint256)": "590",
            "pause()": "infinite",
            "safeTransferFrom(address,address,uint256)": "infinite",
            "safeTransferFrom(address,address,uint256,bytes)": "infinite",
            "setApprovalForAll(address,bool)": "22567",
            "supportsInterface(bytes4)": "593",
            "symbol()": "infinite",
            "tokenByIndex(uint256)": "1006",
            "tokenOfOwnerByIndex(address,uint256)": "infinite",
            "tokenURI(uint256)": "infinite",
            "totalSupply()": "510",
            "transferFrom(address,address,uint256)": "infinite",
            "transferOwnership(address)": "infinite",
            "unpause()": "infinite"
        }
    }
}