{
    "contractName": "SolnSquareVerifier",
    "abi": [
        {
            "constant": true,
            "inputs": [
                {
                    "internalType": "bytes4",
                    "name": "interfaceId",
                    "type": "bytes4"
                }
            ],
            "name": "supportsInterface",
            "outputs": [
                {
                    "internalType": "bool",
                    "name": "",
                    "type": "bool"
                }
            ],
            "payable": false,
            "stateMutability": "view",
            "type": "function"
        },
        {
            "constant": true,
            "inputs": [],
            "name": "name",
            "outputs": [
                {
                    "internalType": "string",
                    "name": "",
                    "type": "string"
                }
            ],
            "payable": false,
            "stateMutability": "view",
            "type": "function"
        },
        {
            "constant": true,
            "inputs": [
                {
                    "internalType": "uint256",
                    "name": "tokenId",
                    "type": "uint256"
                }
            ],
            "name": "getApproved",
            "outputs": [
                {
                    "internalType": "address",
                    "name": "",
                    "type": "address"
                }
            ],
            "payable": false,
            "stateMutability": "view",
            "type": "function"
        },
        {
            "constant": false,
            "inputs": [
                {
                    "internalType": "address",
                    "name": "to",
                    "type": "address"
                },
                {
                    "internalType": "uint256",
                    "name": "tokenId",
                    "type": "uint256"
                }
            ],
            "name": "approve",
            "outputs": [],
            "payable": false,
            "stateMutability": "nonpayable",
            "type": "function"
        },
        {
            "constant": true,
            "inputs": [],
            "name": "totalSupply",
            "outputs": [
                {
                    "internalType": "uint256",
                    "name": "",
                    "type": "uint256"
                }
            ],
            "payable": false,
            "stateMutability": "view",
            "type": "function"
        },
        {
            "constant": false,
            "inputs": [
                {
                    "internalType": "address",
                    "name": "from",
                    "type": "address"
                },
                {
                    "internalType": "address",
                    "name": "to",
                    "type": "address"
                },
                {
                    "internalType": "uint256",
                    "name": "tokenId",
                    "type": "uint256"
                }
            ],
            "name": "transferFrom",
            "outputs": [],
            "payable": false,
            "stateMutability": "nonpayable",
            "type": "function"
        },
        {
            "constant": false,
            "inputs": [
                {
                    "internalType": "bytes32",
                    "name": "_myid",
                    "type": "bytes32"
                },
                {
                    "internalType": "string",
                    "name": "_result",
                    "type": "string"
                }
            ],
            "name": "__callback",
            "outputs": [],
            "payable": false,
            "stateMutability": "nonpayable",
            "type": "function"
        },
        {
            "constant": true,
            "inputs": [
                {
                    "internalType": "address",
                    "name": "owner",
                    "type": "address"
                },
                {
                    "internalType": "uint256",
                    "name": "index",
                    "type": "uint256"
                }
            ],
            "name": "tokenOfOwnerByIndex",
            "outputs": [
                {
                    "internalType": "uint256",
                    "name": "",
                    "type": "uint256"
                }
            ],
            "payable": false,
            "stateMutability": "view",
            "type": "function"
        },
        {
            "constant": false,
            "inputs": [
                {
                    "internalType": "bytes32",
                    "name": "_myid",
                    "type": "bytes32"
                },
                {
                    "internalType": "string",
                    "name": "_result",
                    "type": "string"
                },
                {
                    "internalType": "bytes",
                    "name": "_proof",
                    "type": "bytes"
                }
            ],
            "name": "__callback",
            "outputs": [],
            "payable": false,
            "stateMutability": "nonpayable",
            "type": "function"
        },
        {
            "constant": false,
            "inputs": [
                {
                    "internalType": "uint256",
                    "name": "a",
                    "type": "uint256"
                },
                {
                    "internalType": "uint256",
                    "name": "b",
                    "type": "uint256"
                },
                {
                    "internalType": "address",
                    "name": "to",
                    "type": "address"
                }
            ],
            "name": "mintNewNFT",
            "outputs": [],
            "payable": false,
            "stateMutability": "nonpayable",
            "type": "function"
        },
        {
            "constant": false,
            "inputs": [],
            "name": "unpause",
            "outputs": [],
            "payable": false,
            "stateMutability": "nonpayable",
            "type": "function"
        },
        {
            "constant": false,
            "inputs": [
                {
                    "internalType": "address",
                    "name": "to",
                    "type": "address"
                },
                {
                    "internalType": "uint256",
                    "name": "tokenId",
                    "type": "uint256"
                }
            ],
            "name": "mint",
            "outputs": [
                {
                    "internalType": "bool",
                    "name": "",
                    "type": "bool"
                }
            ],
            "payable": false,
            "stateMutability": "nonpayable",
            "type": "function"
        },
        {
            "constant": false,
            "inputs": [
                {
                    "internalType": "address",
                    "name": "from",
                    "type": "address"
                },
                {
                    "internalType": "address",
                    "name": "to",
                    "type": "address"
                },
                {
                    "internalType": "uint256",
                    "name": "tokenId",
                    "type": "uint256"
                }
            ],
            "name": "safeTransferFrom",
            "outputs": [],
            "payable": false,
            "stateMutability": "nonpayable",
            "type": "function"
        },
        {
            "constant": true,
            "inputs": [
                {
                    "internalType": "uint256",
                    "name": "index",
                    "type": "uint256"
                }
            ],
            "name": "tokenByIndex",
            "outputs": [
                {
                    "internalType": "uint256",
                    "name": "",
                    "type": "uint256"
                }
            ],
            "payable": false,
            "stateMutability": "view",
            "type": "function"
        },
        {
            "constant": false,
            "inputs": [
                {
                    "internalType": "uint256[2]",
                    "name": "A",
                    "type": "uint256[2]"
                },
                {
                    "internalType": "uint256[2]",
                    "name": "A_p",
                    "type": "uint256[2]"
                },
                {
                    "internalType": "uint256[2][2]",
                    "name": "B",
                    "type": "uint256[2][2]"
                },
                {
                    "internalType": "uint256[2]",
                    "name": "B_p",
                    "type": "uint256[2]"
                },
                {
                    "internalType": "uint256[2]",
                    "name": "C",
                    "type": "uint256[2]"
                },
                {
                    "internalType": "uint256[2]",
                    "name": "C_p",
                    "type": "uint256[2]"
                },
                {
                    "internalType": "uint256[2]",
                    "name": "H",
                    "type": "uint256[2]"
                },
                {
                    "internalType": "uint256[2]",
                    "name": "K",
                    "type": "uint256[2]"
                },
                {
                    "internalType": "uint256[2]",
                    "name": "input",
                    "type": "uint256[2]"
                }
            ],
            "name": "addSolution",
            "outputs": [],
            "payable": false,
            "stateMutability": "nonpayable",
            "type": "function"
        },
        {
            "constant": true,
            "inputs": [
                {
                    "internalType": "uint256",
                    "name": "tokenId",
                    "type": "uint256"
                }
            ],
            "name": "ownerOf",
            "outputs": [
                {
                    "internalType": "address",
                    "name": "",
                    "type": "address"
                }
            ],
            "payable": false,
            "stateMutability": "view",
            "type": "function"
        },
        {
            "constant": true,
            "inputs": [
                {
                    "internalType": "address",
                    "name": "owner",
                    "type": "address"
                }
            ],
            "name": "balanceOf",
            "outputs": [
                {
                    "internalType": "uint256",
                    "name": "",
                    "type": "uint256"
                }
            ],
            "payable": false,
            "stateMutability": "view",
            "type": "function"
        },
        {
            "constant": false,
            "inputs": [],
            "name": "pause",
            "outputs": [],
            "payable": false,
            "stateMutability": "nonpayable",
            "type": "function"
        },
        {
            "constant": true,
            "inputs": [],
            "name": "owner",
            "outputs": [
                {
                    "internalType": "address",
                    "name": "",
                    "type": "address"
                }
            ],
            "payable": false,
            "stateMutability": "view",
            "type": "function"
        },
        {
            "constant": true,
            "inputs": [],
            "name": "isOwner",
            "outputs": [
                {
                    "internalType": "bool",
                    "name": "",
                    "type": "bool"
                }
            ],
            "payable": false,
            "stateMutability": "view",
            "type": "function"
        },
        {
            "constant": true,
            "inputs": [],
            "name": "symbol",
            "outputs": [
                {
                    "internalType": "string",
                    "name": "",
                    "type": "string"
                }
            ],
            "payable": false,
            "stateMutability": "view",
            "type": "function"
        },
        {
            "constant": false,
            "inputs": [
                {
                    "internalType": "address",
                    "name": "to",
                    "type": "address"
                },
                {
                    "internalType": "bool",
                    "name": "approved",
                    "type": "bool"
                }
            ],
            "name": "setApprovalForAll",
            "outputs": [],
            "payable": false,
            "stateMutability": "nonpayable",
            "type": "function"
        },
        {
            "constant": false,
            "inputs": [
                {
                    "internalType": "address",
                    "name": "from",
                    "type": "address"
                },
                {
                    "internalType": "address",
                    "name": "to",
                    "type": "address"
                },
                {
                    "internalType": "uint256",
                    "name": "tokenId",
                    "type": "uint256"
                },
                {
                    "internalType": "bytes",
                    "name": "_data",
                    "type": "bytes"
                }
            ],
            "name": "safeTransferFrom",
            "outputs": [],
            "payable": false,
            "stateMutability": "nonpayable",
            "type": "function"
        },
        {
            "constant": true,
            "inputs": [
                {
                    "internalType": "uint256",
                    "name": "tokenId",
                    "type": "uint256"
                }
            ],
            "name": "tokenURI",
            "outputs": [
                {
                    "internalType": "string",
                    "name": "",
                    "type": "string"
                }
            ],
            "payable": false,
            "stateMutability": "view",
            "type": "function"
        },
        {
            "constant": true,
            "inputs": [],
            "name": "baseTokenURI",
            "outputs": [
                {
                    "internalType": "string",
                    "name": "",
                    "type": "string"
                }
            ],
            "payable": false,
            "stateMutability": "view",
            "type": "function"
        },
        {
            "constant": true,
            "inputs": [
                {
                    "internalType": "address",
                    "name": "owner",
                    "type": "address"
                },
                {
                    "internalType": "address",
                    "name": "operator",
                    "type": "address"
                }
            ],
            "name": "isApprovedForAll",
            "outputs": [
                {
                    "internalType": "bool",
                    "name": "",
                    "type": "bool"
                }
            ],
            "payable": false,
            "stateMutability": "view",
            "type": "function"
        },
        {
            "constant": false,
            "inputs": [
                {
                    "internalType": "address",
                    "name": "newOwner",
                    "type": "address"
                }
            ],
            "name": "transferOwnership",
            "outputs": [],
            "payable": false,
            "stateMutability": "nonpayable",
            "type": "function"
        },
        {
            "inputs": [
                {
                    "internalType": "address",
                    "name": "verifierAddress",
                    "type": "address"
                },
                {
                    "internalType": "string",
                    "name": "name",
                    "type": "string"
                },
                {
                    "internalType": "string",
                    "name": "symbol",
                    "type": "string"
                }
            ],
            "payable": false,
            "stateMutability": "nonpayable",
            "type": "constructor"
        },
        {
            "anonymous": false,
            "inputs": [
                {
                    "indexed": false,
                    "internalType": "uint256",
                    "name": "solutionIndex",
                    "type": "uint256"
                },
                {
                    "indexed": true,
                    "internalType": "address",
                    "name": "solutionAddress",
                    "type": "address"
                }
            ],
            "name": "SolutionAdded",
            "type": "event"
        },
        {
            "anonymous": false,
            "inputs": [
                {
                    "indexed": true,
                    "internalType": "address",
                    "name": "from",
                    "type": "address"
                },
                {
                    "indexed": true,
                    "internalType": "address",
                    "name": "to",
                    "type": "address"
                },
                {
                    "indexed": true,
                    "internalType": "uint256",
                    "name": "tokenId",
                    "type": "uint256"
                }
            ],
            "name": "Transfer",
            "type": "event"
        },
        {
            "anonymous": false,
            "inputs": [
                {
                    "indexed": true,
                    "internalType": "address",
                    "name": "owner",
                    "type": "address"
                },
                {
                    "indexed": true,
                    "internalType": "address",
                    "name": "approved",
                    "type": "address"
                },
                {
                    "indexed": true,
                    "internalType": "uint256",
                    "name": "tokenId",
                    "type": "uint256"
                }
            ],
            "name": "Approval",
            "type": "event"
        },
        {
            "anonymous": false,
            "inputs": [
                {
                    "indexed": true,
                    "internalType": "address",
                    "name": "owner",
                    "type": "address"
                },
                {
                    "indexed": true,
                    "internalType": "address",
                    "name": "operator",
                    "type": "address"
                },
                {
                    "indexed": false,
                    "internalType": "bool",
                    "name": "approved",
                    "type": "bool"
                }
            ],
            "name": "ApprovalForAll",
            "type": "event"
        },
        {
            "anonymous": false,
            "inputs": [
                {
                    "indexed": true,
                    "internalType": "address",
                    "name": "account",
                    "type": "address"
                }
            ],
            "name": "Paused",
            "type": "event"
        },
        {
            "anonymous": false,
            "inputs": [
                {
                    "indexed": true,
                    "internalType": "address",
                    "name": "account",
                    "type": "address"
                }
            ],
            "name": "Unpaused",
            "type": "event"
        },
        {
            "anonymous": false,
            "inputs": [
                {
                    "indexed": true,
                    "internalType": "address",
                    "name": "previousOwner",
                    "type": "address"
                },
                {
                    "indexed": true,
                    "internalType": "address",
                    "name": "newOwner",
                    "type": "address"
                }
            ],
            "name": "OwnershipTransferred",
            "type": "event"
        }
    ],
    "bytecode": "608060405260006014553480156200001657600080fd5b50604051620028a6380380620028a6833981810160405260608110156200003c57600080fd5b8151602083018051604051929492938301929190846401000000008211156200006457600080fd5b9083019060208201858111156200007a57600080fd5b82516401000000008111828201881017156200009557600080fd5b82525081516020918201929091019080838360005b83811015620000c4578181015183820152602001620000aa565b50505050905090810190601f168015620000f25780820380516001836020036101000a031916815260200191505b50604052602001805160405193929190846401000000008211156200011657600080fd5b9083019060208201858111156200012c57600080fd5b82516401000000008111828201881017156200014757600080fd5b82525081516020918201929091019080838360005b83811015620001765781810151838201526020016200015c565b50505050905090810190601f168015620001a45780820380516001836020036101000a031916815260200191505b50604052505050818181816040518060600160405280603f815260200162002867603f9139600080546001600160a01b03191633178082556040516001600160a01b039190911691907f8be0079c531659141344cd1fd0a4f28419497f9722a3daafe3b4186f6b6457e0908290a36000805460ff60a01b19169055620002537f01ffc9a7000000000000000000000000000000000000000000000000000000006001600160e01b036200036016565b620002877f80ac58cd000000000000000000000000000000000000000000000000000000006001600160e01b036200036016565b620002bb7f780e9d63000000000000000000000000000000000000000000000000000000006001600160e01b036200036016565b8251620002d090600f906020860190620003d0565b508151620002e6906010906020850190620003d0565b508051620002fc906011906020840190620003d0565b50620003317f5b5e139f000000000000000000000000000000000000000000000000000000006001600160e01b036200036016565b5050601380546001600160a01b0319166001600160a01b03979097169690961790955550620004759350505050565b7fffffffff0000000000000000000000000000000000000000000000000000000080821614156200039057600080fd5b7fffffffff00000000000000000000000000000000000000000000000000000000166000908152600160208190526040909120805460ff19169091179055565b828054600181600116156101000203166002900490600052602060002090601f016020900481019282601f106200041357805160ff191683800117855562000443565b8280016001018555821562000443579182015b828111156200044357825182559160200191906001019062000426565b506200045192915062000455565b5090565b6200047291905b808211156200045157600081556001016200045c565b90565b6123e280620004856000396000f3fe608060405234801561001057600080fd5b50600436106101a95760003560e01c80634f6ccce7116100f957806395d89b4111610097578063c87b56dd11610071578063c87b56dd146108f8578063d547cfb714610915578063e985e9c51461091d578063f2fde38b1461094b576101a9565b806395d89b41146107fe578063a22cb46514610806578063b88d4fde14610834576101a9565b806370a08231116100d357806370a08231146107c05780638456cb59146107e65780638da5cb5b146107ee5780638f32d59b146107f6576101a9565b80634f6ccce7146105c05780635a50ec51146105dd5780636352211e146107a3576101a9565b806327dc297e1161016657806338d470961161014057806338d47096146105245780633f4ba83a1461055657806340c10f191461055e57806342842e0e1461058a576101a9565b806327dc297e1461031d5780632f745c59146103c857806338bbfa50146103f4576101a9565b806301ffc9a7146101ae57806306fdde03146101e9578063081812fc14610266578063095ea7b31461029f57806318160ddd146102cd57806323b872dd146102e7575b600080fd5b6101d5600480360360208110156101c457600080fd5b50356001600160e01b031916610971565b604080519115158252519081900360200190f35b6101f1610994565b6040805160208082528351818301528351919283929083019185019080838360005b8381101561022b578181015183820152602001610213565b50505050905090810190601f1680156102585780820380516001836020036101000a031916815260200191505b509250505060405180910390f35b6102836004803603602081101561027c57600080fd5b5035610a2b565b604080516001600160a01b039092168252519081900360200190f35b6102cb600480360360408110156102b557600080fd5b506001600160a01b038135169060200135610a46565b005b6102d5610b6d565b60408051918252519081900360200190f35b6102cb600480360360608110156102fd57600080fd5b506001600160a01b03813581169160208101359091169060400135610b73565b6102cb6004803603604081101561033357600080fd5b81359190810190604081016020820135600160201b81111561035457600080fd5b82018360208201111561036657600080fd5b803590602001918460018302840111600160201b8311171561038757600080fd5b91908080601f016020809104026020016040519081016040528093929190818152602001838380828437600092019190915250929550610b96945050505050565b6102d5600480360360408110156103de57600080fd5b506001600160a01b038135169060200135610bb6565b6102cb6004803603606081101561040a57600080fd5b81359190810190604081016020820135600160201b81111561042b57600080fd5b82018360208201111561043d57600080fd5b803590602001918460018302840111600160201b8311171561045e57600080fd5b91908080601f0160208091040260200160405190810160405280939291908181526020018383808284376000920191909152509295949360208101935035915050600160201b8111156104b057600080fd5b8201836020820111156104c257600080fd5b803590602001918460018302840111600160201b831117156104e357600080fd5b91908080601f016020809104026020016040519081016040528093929190818152602001838380828437600092019190915250929550610b91945050505050565b6102cb6004803603606081101561053a57600080fd5b50803590602081013590604001356001600160a01b0316610c04565b6102cb610d8c565b6101d56004803603604081101561057457600080fd5b506001600160a01b038135169060200135610e73565b6102cb600480360360608110156105a057600080fd5b506001600160a01b03813581169160208101359091169060400135610f33565b6102d5600480360360208110156105d657600080fd5b5035610f4e565b6102cb60048036036102808110156105f457600080fd5b60408051808201825291830192918183019183906002908390839080828437600092019190915250506040805180820182529295949381810193925090600290839083908082843760009201829052506040805180820190915293969594608081019493509150600290835b8282101561069e5760408051808201825290808402860190600290839083908082843760009201919091525050508152600190910190602001610660565b5050604080518082018252939695948181019493509150600290839083908082843760009201919091525050604080518082018252929594938181019392509060029083908390808284376000920191909152505060408051808201825292959493818101939250906002908390839080828437600092019190915250506040805180820182529295949381810193925090600290839083908082843760009201919091525050604080518082018252929594938181019392509060029083908390808284376000920191909152505060408051808201825292959493818101939250906002908390839080828437600092019190915250919450610f829350505050565b610283600480360360208110156107b957600080fd5b5035611361565b6102d5600480360360208110156107d657600080fd5b50356001600160a01b031661137c565b6102cb61139d565b610283611486565b6101d5611495565b6101f16114a6565b6102cb6004803603604081101561081c57600080fd5b506001600160a01b0381351690602001351515611507565b6102cb6004803603608081101561084a57600080fd5b6001600160a01b03823581169260208101359091169160408201359190810190608081016060820135600160201b81111561088457600080fd5b82018360208201111561089657600080fd5b803590602001918460018302840111600160201b831117156108b757600080fd5b91908080601f01602080910402602001604051908101604052809392919081815260200183838082843760009201919091525092955061158b945050505050565b6101f16004803603602081101561090e57600080fd5b50356115b1565b6101f1611664565b6101d56004803603604081101561093357600080fd5b506001600160a01b03813581169160200135166116c5565b6102cb6004803603602081101561096157600080fd5b50356001600160a01b03166116f3565b6001600160e01b0319811660009081526001602052604090205460ff165b919050565b600f8054604080516020601f6002600019610100600188161502019095169490940493840181900481028201810190925282815260609390929091830182828015610a205780601f106109f557610100808354040283529160200191610a20565b820191906000526020600020905b815481529060010190602001808311610a0357829003601f168201915b505050505090505b90565b6000908152600360205260409020546001600160a01b031690565b6000610a5182611361565b9050806001600160a01b0316836001600160a01b03161415610aba576040805162461bcd60e51b815260206004820152601a60248201527f43616e6e6f7420617070726f766520746f20796f757273656c66000000000000604482015290519081900360640190fd5b336001600160a01b0382161480610ad65750610ad681336116c5565b610b115760405162461bcd60e51b815260040180806020018281038252602b8152602001806122ec602b913960400191505060405180910390fd5b60008281526003602052604080822080546001600160a01b0319166001600160a01b0387811691821790925591518593918516917f8c5be1e5ebec7d5bd14f71427d1e84f3dd0314c0f7b2291e5b200ac8c7c3b92591a4505050565b60085490565b610b7d33826117ae565b610b8657600080fd5b610b9183838361180d565b505050565b604080516000815260208101909152610bb29083908390610b91565b5050565b6000610bc18361137c565b8210610bcc57600080fd5b6001600160a01b0383166000908152600660205260409020805483908110610bf057fe5b906000526020600020015490505b92915050565b6040805160208082018690528183018590528251808303840181526060909201835281519181019190912060008181526015909252919020600101546001600160a01b0316610c9a576040805162461bcd60e51b815260206004820152601760248201527f536f6c7574696f6e20646f6573206e6f74206578697374000000000000000000604482015290519081900360640190fd5b600081815260156020526040902060010154600160a01b900460ff1615610cf25760405162461bcd60e51b81526004018080602001828103825260268152602001806123886026913960400191505060405180910390fd5b6000818152601560205260409020600101546001600160a01b03163314610d4a5760405162461bcd60e51b81526004018080602001828103825260308152602001806123586030913960400191505060405180910390fd5b600081815260156020526040902054610d64908390610e73565b506000908152601560205260409020600101805460ff60a01b1916600160a01b179055505050565b6000546001600160a01b03163314610dd9576040805162461bcd60e51b81526020600482018190526024820152600080516020612317833981519152604482015290519081900360640190fd5b600054600160a01b900460ff161515600114610e3c576040805162461bcd60e51b815260206004820181905260248201527f436f6e7472616374206973206e6f742063757272656e746c7920706175736564604482015290519081900360640190fd5b6000805460ff60a01b1916815560405133917f5db9ee0a495bf2e6ff9c91a7834c1ba4fdd244a5e8aa4e537bd38aeae4b073aa91a2565b600080546001600160a01b03163314610ec1576040805162461bcd60e51b81526020600482018190526024820152600080516020612317833981519152604482015290519081900360640190fd5b600054600160a01b900460ff1615610f20576040805162461bcd60e51b815260206004820152601c60248201527f436f6e74726163742069732063757272656e746c792070617573656400000000604482015290519081900360640190fd5b610f2a838361182c565b610bfe82611849565b610b918383836040518060200160405280600081525061158b565b6000610f58610b6d565b8210610f6357600080fd5b60088281548110610f7057fe5b90600052602060002001549050919050565b80516020808301516040805180840194909452838101919091528051808403820181526060909301815282519282019290922060008181526015909252919020600101546001600160a01b031615611021576040805162461bcd60e51b815260206004820152601760248201527f536f6c7574696f6e2065786973747320616c7265616479000000000000000000604482015290519081900360640190fd5b6000601360009054906101000a90046001600160a01b03166001600160a01b031663fe01ff628c8c8c8c8c8c8c8c8c6040518a63ffffffff1660e01b8152600401808a600260200280838360005b8381101561108757818101518382015260200161106f565b5050505090500189600260200280838360005b838110156110b257818101518382015260200161109a565b505050509050018860026000925b818410156111005760208402830151604080838360005b838110156110ef5781810151838201526020016110d7565b5050505090500192600101926110c0565b9250505087600260200280838360005b83811015611128578181015183820152602001611110565b5050505090500186600260200280838360005b8381101561115357818101518382015260200161113b565b5050505090500185600260200280838360005b8381101561117e578181015183820152602001611166565b5050505090500184600260200280838360005b838110156111a9578181015183820152602001611191565b5050505090500183600260200280838360005b838110156111d45781810151838201526020016111bc565b5050505090500182600260200280838360005b838110156111ff5781810151838201526020016111e7565b505050509050019950505050505050505050602060405180830381600087803b15801561122b57600080fd5b505af115801561123f573d6000803e3d6000fd5b505050506040513d602081101561125557600080fd5b50519050806112ab576040805162461bcd60e51b815260206004820152601e60248201527f536f6c7574696f6e20636f756c64206e6f742062652076657269666965640000604482015290519081900360640190fd5b60408051606081018252601480548252336020808401828152600085870181815289825260158452908790209551865590516001909501805491511515600160a01b0260ff60a01b196001600160a01b039097166001600160a01b031990931692909217959095161790935590548351908152925190927f078793128cefb19aac38a33f9e5df39f67716907f6d747e8065545699e0b2b8d92908290030190a25050601480546001019055505050505050505050565b6000908152600260205260409020546001600160a01b031690565b6001600160a01b0381166000908152600460205260408120610bfe9061195d565b6000546001600160a01b031633146113ea576040805162461bcd60e51b81526020600482018190526024820152600080516020612317833981519152604482015290519081900360640190fd5b600054600160a01b900460ff1615611449576040805162461bcd60e51b815260206004820152601c60248201527f436f6e74726163742069732063757272656e746c792070617573656400000000604482015290519081900360640190fd5b6000805460ff60a01b1916600160a01b17815560405133917f62e78cea01bee320cd4e420270b5ea74000d11b0c9f74754ebdbfc544b05a25891a2565b6000546001600160a01b031690565b6000546001600160a01b0316331490565b60108054604080516020601f6002600019610100600188161502019095169490940493840181900481028201810190925282815260609390929091830182828015610a205780601f106109f557610100808354040283529160200191610a20565b6001600160a01b03821633141561151d57600080fd5b3360008181526005602090815260408083206001600160a01b03871680855290835292819020805460ff1916861515908117909155815190815290519293927f17307eab39ab6107e8899845ad3d59bd9653f200f220920489ca2b5937696c31929181900390910190a35050565b611596848484610b73565b6115a284848484611961565b6115ab57600080fd5b50505050565b60606115bc82611a94565b6115c557600080fd5b60008281526012602090815260409182902080548351601f6002600019610100600186161502019093169290920491820184900484028101840190945280845290918301828280156116585780601f1061162d57610100808354040283529160200191611658565b820191906000526020600020905b81548152906001019060200180831161163b57829003601f168201915b50505050509050919050565b60118054604080516020601f6002600019610100600188161502019095169490940493840181900481028201810190925282815260609390929091830182828015610a205780601f106109f557610100808354040283529160200191610a20565b6001600160a01b03918216600090815260056020908152604080832093909416825291909152205460ff1690565b6000546001600160a01b03163314611740576040805162461bcd60e51b81526020600482018190526024820152600080516020612317833981519152604482015290519081900360640190fd5b6001600160a01b03811661175357600080fd5b600080546040516001600160a01b03808516939216917f8be0079c531659141344cd1fd0a4f28419497f9722a3daafe3b4186f6b6457e091a3600080546001600160a01b0319166001600160a01b0392909216919091179055565b6000806117ba83611361565b9050806001600160a01b0316846001600160a01b031614806117f55750836001600160a01b03166117ea84610a2b565b6001600160a01b0316145b80611805575061180581856116c5565b949350505050565b611818838383611ab1565b6118228382611c00565b610b918282611cf5565b6118368282611d33565b6118408282611cf5565b610bb281611e5f565b61185281611a94565b61189a576040805162461bcd60e51b8152602060048201526014602482015273151bdad95b88191bd95cc81b9bdd08195e1a5cdd60621b604482015290519081900360640190fd5b60118054604080516020601f6002600019610100600188161502019095169490940493840181900481028201810190925282815261193a93909290918301828280156119275780601f106118fc57610100808354040283529160200191611927565b820191906000526020600020905b81548152906001019060200180831161190a57829003601f168201915b505050505061193583611ea3565b611f64565b60008281526012602090815260409091208251610bb29391929190910190612233565b5490565b6000611975846001600160a01b0316611fa7565b61198157506001611805565b604051630a85bd0160e11b815233600482018181526001600160a01b03888116602485015260448401879052608060648501908152865160848601528651600095928a169463150b7a029490938c938b938b939260a4019060208501908083838e5b838110156119fb5781810151838201526020016119e3565b50505050905090810190601f168015611a285780820380516001836020036101000a031916815260200191505b5095505050505050602060405180830381600087803b158015611a4a57600080fd5b505af1158015611a5e573d6000803e3d6000fd5b505050506040513d6020811015611a7457600080fd5b50516001600160e01b031916630a85bd0160e11b14915050949350505050565b6000908152600260205260409020546001600160a01b0316151590565b611aba81611361565b6001600160a01b0316836001600160a01b031614611b095760405162461bcd60e51b81526004018080602001828103825260218152602001806123376021913960400191505060405180910390fd5b6001600160a01b038216611b59576040805162461bcd60e51b8152602060048201526012602482015271496e76616c696420746f206164647265737360701b604482015290519081900360640190fd5b611b6281611fad565b6001600160a01b0383166000908152600460205260409020611b8390611fea565b6001600160a01b0382166000908152600460205260409020611ba490612001565b60008181526002602052604080822080546001600160a01b0319166001600160a01b0386811691821790925591518493918716917fddf252ad1be2c89b69c2b068fc378daa952ba7f163c4a11628f55a4df523b3ef91a4505050565b6001600160a01b038216600090815260066020526040812054611c2a90600163ffffffff61200a16565b600083815260076020526040902054909150808214611cc5576001600160a01b0384166000908152600660205260408120805484908110611c6757fe5b906000526020600020015490508060066000876001600160a01b03166001600160a01b031681526020019081526020016000208381548110611ca557fe5b600091825260208083209091019290925591825260079052604090208190555b6001600160a01b0384166000908152600660205260409020805490611cee9060001983016122b1565b5050505050565b6001600160a01b0390911660009081526006602081815260408084208054868652600784529185208290559282526001810183559183529091200155565b6000818152600260205260409020546001600160a01b031615611d94576040805162461bcd60e51b8152602060048201526014602482015273546f6b656e2065786973747320616c726561647960601b604482015290519081900360640190fd5b6001600160a01b038216611de4576040805162461bcd60e51b8152602060048201526012602482015271496e76616c696420746f206164647265737360701b604482015290519081900360640190fd5b600081815260026020908152604080832080546001600160a01b0319166001600160a01b038716908117909155835260049091529020611e2390612001565b60405181906001600160a01b038416906000907fddf252ad1be2c89b69c2b068fc378daa952ba7f163c4a11628f55a4df523b3ef908290a45050565b600880546000838152600960205260408120829055600182018355919091527ff3f7a9fe364faab93b216da50a3214154f22a0a2b415b23a84c8169e8b636ee30155565b606081611ec857506040805180820190915260018152600360fc1b602082015261098f565b8160005b8115611ee057600101600a82049150611ecc565b6060816040519080825280601f01601f191660200182016040528015611f0d576020820181803883390190505b50905060001982015b8515611f5b57600a860660300160f81b82828060019003935081518110611f3957fe5b60200101906001600160f81b031916908160001a905350600a86049550611f16565b50949350505050565b6060611fa0838360405180602001604052806000815250604051806020016040528060008152506040518060200160405280600081525061201f565b9392505050565b3b151590565b6000818152600360205260409020546001600160a01b031615611fe757600081815260036020526040902080546001600160a01b03191690555b50565b8054611ffd90600163ffffffff61200a16565b9055565b80546001019055565b60008282111561201957600080fd5b50900390565b6060808690506060869050606086905060608690506060869050606081518351855187518951010101016040519080825280601f01601f191660200182016040528015612073576020820181803883390190505b509050806000805b88518110156120cc5788818151811061209057fe5b602001015160f81c60f81b8383806001019450815181106120ad57fe5b60200101906001600160f81b031916908160001a90535060010161207b565b5060005b8751811015612121578781815181106120e557fe5b602001015160f81c60f81b83838060010194508151811061210257fe5b60200101906001600160f81b031916908160001a9053506001016120d0565b5060005b86518110156121765786818151811061213a57fe5b602001015160f81c60f81b83838060010194508151811061215757fe5b60200101906001600160f81b031916908160001a905350600101612125565b5060005b85518110156121cb5785818151811061218f57fe5b602001015160f81c60f81b8383806001019450815181106121ac57fe5b60200101906001600160f81b031916908160001a90535060010161217a565b5060005b8451811015612220578481815181106121e457fe5b602001015160f81c60f81b83838060010194508151811061220157fe5b60200101906001600160f81b031916908160001a9053506001016121cf565b50909d9c50505050505050505050505050565b828054600181600116156101000203166002900490600052602060002090601f016020900481019282601f1061227457805160ff19168380011785556122a1565b828001600101855582156122a1579182015b828111156122a1578251825591602001919060010190612286565b506122ad9291506122d1565b5090565b815481835581811115610b9157600083815260209020610b919181019083015b610a2891905b808211156122ad57600081556001016122d756fe43616c6c6572206973206e6f7420617574686f72697a656420616761696e7374207468697320746f6b656e43616c6c6572206973206e6f742074686520636f6e7472616374206f776e65724f6e6c7920746f6b656e206f776e65722063616e20706572666f726d20746869734f6e6c7920736f6c7574696f6e20616464726573732063616e2075736520697420746f206d696e74206120746f6b656e546f6b656e20616c7265616479206d696e74656420666f72207468697320736f6c7574696f6ea265627a7a72315820de2e058bab15243a3b778b5ab73c8d3abd8e1d542bc2f43ed595bad21816a6c464736f6c634300050b003268747470733a2f2f73332d75732d776573742d322e616d617a6f6e6177732e636f6d2f756461636974792d626c6f636b636861696e2f63617073746f6e652f",
    "sourcePath": "/home/capstone/workspace/Capstone-RealEstate/eth-contracts/contracts/SolnSquareVerifier.sol",
    "compiler": {
        "name": "solc",
        "version": "0.5.11+commit.c082d0b4"
    },
    "functionHashes": {
        "__callback(bytes32,string)": "27dc297e",
        "__callback(bytes32,string,bytes)": "38bbfa50",
        "addSolution(uint256[2],uint256[2],uint256[2][2],uint256[2],uint256[2],uint256[2],uint256[2],uint256[2],uint256[2])": "5a50ec51",
        "approve(address,uint256)": "095ea7b3",
        "balanceOf(address)": "70a08231",
        "baseTokenURI()": "d547cfb7",
        "getApproved(uint256)": "081812fc",
        "isApprovedForAll(address,address)": "e985e9c5",
        "isOwner()": "8f32d59b",
        "mint(address,uint256)": "40c10f19",
        "mintNewNFT(uint256,uint256,address)": "38d47096",
        "name()": "06fdde03",
        "owner()": "8da5cb5b",
        "ownerOf(uint256)": "6352211e",
        "pause()": "8456cb59",
        "safeTransferFrom(address,address,uint256)": "42842e0e",
        "safeTransferFrom(address,address,uint256,bytes)": "b88d4fde",
        "setApprovalForAll(address,bool)": "a22cb465",
        "supportsInterface(bytes4)": "01ffc9a7",
        "symbol()": "95d89b41",
        "tokenByIndex(uint256)": "4f6ccce7",
        "tokenOfOwnerByIndex(address,uint256)": "2f745c59",
        "tokenURI(uint256)": "c87b56dd",
        "totalSupply()": "18160ddd",
        "transferFrom(address,address,uint256)": "23b872dd",
        "transferOwnership(address)": "f2fde38b",
        "unpause()": "3f4ba83a"
    },
    "gasEstimates": {
        "creation": {
            "codeDepositCost": "1837200",
            "executionCost": "infinite",
            "totalCost": "infinite"
        },
        "external": {
            "__callback(bytes32,string)": "infinite",
            "__callback(bytes32,string,bytes)": "infinite",
            "addSolution(uint256[2],uint256[2],uint256[2][2],uint256[2],uint256[2],uint256[2],uint256[2],uint256[2],uint256[2])": "infinite",
            "approve(address,uint256)": "infinite",
            "balanceOf(address)": "627",
            "baseTokenURI()": "infinite",
            "getApproved(uint256)": "613",
            "isApprovedForAll(address,address)": "750",
            "isOwner()": "538",
            "mint(address,uint256)": "infinite",
            "mintNewNFT(uint256,uint256,address)": "infinite",
            "name()": "infinite",
            "owner()": "526",
            "ownerOf(uint256)": "635",
            "pause()": "infinite",
            "safeTransferFrom(address,address,uint256)": "infinite",
            "safeTransferFrom(address,address,uint256,bytes)": "infinite",
            "setApprovalForAll(address,bool)": "22567",
            "supportsInterface(bytes4)": "593",
            "symbol()": "infinite",
            "tokenByIndex(uint256)": "1029",
            "tokenOfOwnerByIndex(address,uint256)": "infinite",
            "tokenURI(uint256)": "infinite",
            "totalSupply()": "510",
            "transferFrom(address,address,uint256)": "infinite",
            "transferOwnership(address)": "infinite",
            "unpause()": "infinite"
        }
    }
}